S01900004452495645525F455854494E545F5232312E73726563F0
S113000088200020E1070000DD070000DD07000074
S113001000000000000000000000000000000000DC
S1130020000000000000000000000000DD070000E8
S11300300000000000000000DD070000DD070000F4
S1130040DD070000DD070000DD070000DD0700001C
S113005009020000DD070000DD070000DD070000E5
S1130060DD070000DD070000DD070000DD070000FC
S1130070DD070000DD070000DD070000DD070000EC
S1130080DD070000DD070000DD070000DD070000DC
S1130090DD0700000000000000000000DD07000094
S11300A0DD07000000000000DD0700000000000084
S11300B00000000010B5064C2378002B07D1054B37
S11300C0002B02D0044800E000BF0123237010BDC0
S11300D00400002000000000E0090000084B10B5F7
S11300E0002B03D00749084800E000BF0748036815
S11300F0002B00D110BD064B002BFBD09847F9E72D
S11301000000000008000020E0090000E0090000F1
S1130110000000000C4B1B68002B06D1EFF310838A
S1130120002B07D00022094B1A70074A13680133C9
S11301301360704772B6BFF35F8F0022044B1A70CE
S11301400132024B1A70F0E7200000202400002046
S113015000000020084B1A68013A1A601B68002B43
S113016009D1064B1B78002B05D00122044B1A70D1
S1130170BFF35F8F62B67047200000202400002088
S113018000000020F0B583B001AC012565700027A4
S1130190A770257021001320064EB0478022120359
S11301A0054B9A612770657021001C20B04703B08D
S11301B0F0BDC0466D030000004400411723002A2F
S11301C001D0180070478B00064A9B58002B03D0BF
S11301D0834205D01D23F4E7890088500023F0E70B
S11301E00023EEE7440000201723002901D0180063
S11301F0704700221F2800D8024A01238340D3609D
S11302000023F4E70018004070B50022104B1A7068
S1130210002310491F25104E0D4C0AE00D4908E03B
S113022023780133DBB223700F2B10D800211F2B4E
S1130230F4D9280018400122824008691042EFD006
S11302400A619B009B59002BEAD09847E8E770BDF0
S1130250400000200018004044000020044A1378A5
S113026002210B43137053785BB2002BFBDB704706
S11302700018004000B583B0124A936940210B4333
S1130280936101A900230B7005200F4B98470520AB
S11302900E4B98470E4A137801210B431370537881
S11302A05BB2002BFBDB0B4B19004031002204C373
S11302B09942FCD11022084B1A60084B984703B0AE
S11302C000BDC04600040040B90600002D06000031
S11302D0001800404400002000E100E05D0200003E
S11302E0002303604360012202724272837202336C
S11302F0C3727047F0B583B005000C0001A9002358
S11303004B70CB7023790B70237A8B702078154B4C
S1130310984700201F2D00D8134807222A40920036
S1130320E77AA37A002B01D008231F43EB089B0034
S1130330C31899690F269640B14397403A000A437F
S11303409A61637A002B06D143690122AA40934340
S1130350436103B0F0BD42690123AB4013434361E1
S1130360F7E7C0467D0700000018004000B583B0E1
S113037001AB80221A700A785A704A789A708A7887
S1130380DA701900014B984703B000BD7D070000E7
S113039070B50C490B6A04788578407801221040C6
S11303A080014026B34303432A40D2018020834383
S11303B013430322224012020348034013430B62F7
S11303C070BDC04600080040FFFCFFFF082803D8AA
S11303D08000254B1B589F46172044E0234A136A8C
S11303E002210B43136200203DE0204A936902215D
S11303F00B439361002036E01C4A138A02210B430D
S1130400138200202FE0194A938A02210B4393821E
S1130410002028E016490B68022213430B60134B9B
S11304209A8419000E32CB681A42FCD0104A9168A3
S11304300E4BD96252689A6200229A8419001032D3
S1130440CB681A42FCD00A4B1B689BB2074A9384C0
S1130450002008E0054944228B5C022003438B54AE
S1130460002000E0002070479C09000000080040C4
S11304702800002030B585B0C222D2001A4B9A6001
S11304801A4A53681E218B43536001236A46137032
S11304900024174DE0B26946A8470134252CF9D150
S11304A003A800244470012585700470114B9847FB
S11304B00620114B9847114B9847114B1C725C72E4
S11304C09C72DC7201956B465C7006236A4613705D
S11304D014725472694600200A4B984700200A4B54
S11304E0984705B030BDC0460008004000400041B8
S11304F0B906000091030000CD0300000D050000C3
S11305000004004031050000E9050000064A936933
S113051008210B4393610122044B1A7019000B78D4
S11305201342FCD17047C04600040040000C004058
S113053070B5060004000D782D0205434B78002B9E
S113054002D08023DB021D434B7A002B02D0802390
S11305501B031D434868012810D9431E184234D197
S1130560022830D90223002201325B009842FBD8D2
S113057012023243140080235B031D430B7A002BC9
S113058002D080239B031D43134A53785BB2002B94
S1130590FBDB124B9847124B1E700F4A53785BB229
S11305A0002BFBDB0C4B9C601A0053785BB2002BD6
S11305B0FBDB094A5368802149020B401D43556007
S11305C0084B984770BD0022D2E7040234438023CD
S11305D09B021D43D2E7C046000C004015010000F9
S11305E0080C00405501000010B504000B4A537874
S11305F05BB2002BFBDB0A4B98470A4B1C70074A83
S113060053785BB2002BFBDB044A516880235B0206
S11306100B435360044B984710BDC046000C004088
S113062015010000040C00405501000010B5040041
S1130630064B9847064B1C70064A53888021C90113
S11306400B435380044B984710BDC046150100006E
S1130650020C0040000C00405501000010B50400DD
S11306600F4B98470F4B1C700F4A53881B05180FEC
S113067053880E490B40538053880D490B405380D7
S113068011008022D2014B881342FCD106494A88CA
S113069003020648024013434B80064B984710BDA3
S11306A015010000020C0040000C0040FFF0FFFFA9
S11306B0FFBFFFFF5501000010B50C78240204436E
S11306C0024B9847A4B2024B5C8010BD5D0600004B
S11306D0000C004030B5D378002B35D11378802B33
S11306E029D01B0680246402234354780225AC439A
S11306F006D19478002C20D18024A40223434160A5
S11307005478013C012C1CD90D042D0CA024E405C3
S11307102C431C4384620D0CD02424062C431C431C
S11307208462D478002C22D15B031CD59378012BEE
S11307301ED0416117E00023D7E7C024E40223431D
S1130740DDE70D4C2340DFE741600C04240CA023BB
S1130750DB05234383620C0CD0231B0623438362F3
S1130760D378002B03D15378013B012B02D930BD40
S11307708161F8E78160FAE7FFFFFBFF10B50A002B
S1130780C1090023002904D14309DB0105498C4632
S113079063441F242040012181401800024B9847E4
S11307A010BDC04600440041D5060000704700005B
S11307B010B5054B9847054B9847054B9847054B93
S11307C09847054B984710BD75040000850100004B
S11307D0AD07000075020000AD070000FEE7000051
S11307E0F8B52A4A2A4B9A4211D01A00294B9A4248
S11307F00DD2294A03339B1A9B0801339B00002224
S1130800234822498C58845004329A42FAD1234A0C
S1130810234B9A420AD2D34321495B1803218B43C9
S113082004339B18002102C29342FCD11D4AFF21CC
S11308301D4B8B439360FD3990235B001B4AD150C1
S11308401B4AD3780325AB4302242343D370D378C4
S11308500C27BB4308263343D370164B987B3022B6
S11308609043202210439873997BB9433143997381
S11308709A7BAA4322439A730F4A536880210B43FD
S113088053600E4B98470E4B9847FEE7E009000073
S113089000000020040000200400002004000020C8
S11308A08400002000ED00E0000000000070004122
S11308B0005000410048004100400041550900003B
S11308C039090000064B1B6ADB0004D480221203A2
S11308D0034B5A61704780221203014B9A61F9E776
S11308E00044004110B584B001AC2000074B984788
S11308F01C23019300236360013323720233E372E8
S113090021000820024B984704B010BDE10200000A
S1130910F502000010B5002208210448044B984752
S113092000210820034B984710BDC046C5080000AD
S1130930BD010000E901000010B5034B9847034BCB
S11309409847034B9847FEE7B1070000E50800000D
S11309501509000070B500260C4D0D4C641BA41045
S1130960A64209D1002600F02BF80A4D0A4C641B5C
S1130970A410A64205D170BDB300EB5898470136C8
S1130980EEE7B300EB5898470136F2E7CC090000D4
S1130990CC090000CC090000D0090000F8030000D5
S11309A0D8030000D803000064040000EA03000038
S11309B006040000DC0300001404000054040000DA
S11309C0F8B5C046F8BC08BC9E467047DD00000080
S11309D0F8B5C046F8BC08BC9E467047B500000098
S10709E0010000000E
S90307E114
